{
    "contractName": "VulnerableOwner",
    "abi": [
        {
            "inputs": [],
            "stateMutability": "nonpayable",
            "type": "constructor"
        },
        {
            "inputs": [
                {
                    "internalType": "address",
                    "name": "_newOwner",
                    "type": "address"
                }
            ],
            "name": "changeOwner",
            "outputs": [],
            "stateMutability": "nonpayable",
            "type": "function"
        },
        {
            "inputs": [],
            "name": "owner",
            "outputs": [
                {
                    "internalType": "address",
                    "name": "",
                    "type": "address"
                }
            ],
            "stateMutability": "view",
            "type": "function"
        },
        {
            "inputs": [],
            "name": "withdraw",
            "outputs": [],
            "stateMutability": "nonpayable",
            "type": "function"
        },
        {
            "stateMutability": "payable",
            "type": "receive"
        }
    ],
    "bytecode": "608080604052346026575f80546001600160a01b03191633179055610164908161002b8239f35b5f80fdfe608080604052600436101561001c575b50361561001a575f80fd5b005b5f3560e01c9081633ccfd60b146100b4575080638da5cb5b1461008d5763a6f9dae114610049575f61000f565b34610089576020366003190112610089576004356001600160a01b03811690819003610089576bffffffffffffffffffffffff60a01b5f5416175f555f80f35b5f80fd5b34610089575f366003190112610089575f546040516001600160a01b039091168152602090f35b34610089575f366003190112610089575f546001600160a01b03163303610100575f808080478181156100f7575b3390f1156100ec57005b6040513d5f823e3d90fd5b506108fc6100e2565b62461bcd60e51b81526020600482015260096024820152682737ba1037bbb732b960b91b6044820152606490fdfea2646970667358221220f2d1fb3fc379ad27c556cbeef3bd2dc5864fc24b1ac580844c6e34defee4f0cb64736f6c634300081e0033",
    "sourcePath": "/home/arnab/reentrancy-sim/Slither/Access.sol",
    "compiler": {
        "name": "solc",
        "version": "0.8.30+commit.73712a01"
    },
    "functionHashes": {
        "changeOwner(address)": "a6f9dae1",
        "owner()": "8da5cb5b",
        "withdraw()": "3ccfd60b"
    },
    "gasEstimates": {
        "creation": {
            "codeDepositCost": "71200",
            "executionCost": "24363",
            "totalCost": "95563"
        },
        "external": {
            "changeOwner(address)": "24447",
            "owner()": "2301",
            "withdraw()": "infinite"
        }
    }
}